:020000040800F2
:1000000000040020C5010008E3020008DF02000828
:10001000E1020008490200083D0400080000000059
:1000200000000000000000000000000005030008C0
:100030004B02000800000000E5020008DD03000894
:10004000DF010008DF010008DF010008DF01000810
:10005000DF010008DF010008DF010008DF01000800
:10006000DF010008DF010008DF010008DF010008F0
:10007000DF010008DF010008DF010008DF010008E0
:10008000DF010008DF010008DF010008DF010008D0
:10009000DF010008DF010008DF010008DF010008C0
:1000A000DF010008DF010008DF010008DF010008B0
:1000B000DF010008DF010008DF010008DF010008A0
:1000C000DF010008DF010008DF010008DF01000890
:1000D000DF010008DF010008DF010008DF01000880
:1000E000DF010008DF010008DF010008DF01000870
:1000F000DF010008DF010008DF010008DF01000860
:10010000DF010008DF010008DF010008DF0100084F
:10011000DF010008DF010008DF010008DF0100083F
:10012000DF010008DF010008DF010008DF0100082F
:10013000DF010008DF010008DF010008DF0100081F
:10014000DF010008DF010008DF010008DF0100080F
:10015000DF010008DF010008DF010008DF010008FF
:10016000DF010008DF010008DF010008DF010008EF
:10017000DF010008DF010008DF010008DF010008DF
:10018000DF010008DF010008DF010008DF010008CF
:10019000DF010008DF010008DF010008DF010008BF
:1001A000DF010008DF010008DF010008DFF810D0E0
:1001B00000F01AF8004800475D040008AFF3008023
:1001C000000400200648804706480047FEE7FEE797
:1001D000FEE7FEE7FEE7FEE7FEE7FEE7FEE7FEE7F7
:1001E000E1030008AD010008064C074D06E0E06899
:1001F00040F0010394E8070098471034AC42F6D36E
:10020000FFF7D8FF7C0400088C0400081CB501210E
:10021000042000F069F80220009001218DF80410FC
:1002200000218DF806108DF807008DF80500054CAB
:100230006946204600F013F80221204600F04DF8F0
:100240001CBD000000080240FEE7704701B502E057
:100250000098401E009000980028F9D108BD2DE9B3
:10026000F041002201274FF0030C07FA02F50B685A
:100270002B40AB422CD1066853000CFA03F4A64382
:1002800006600E79D0F800809E4046EA08060660B7
:100290000E79012E01D0022E12D18668A643866007
:1002A0004E79D0F808809E4046EA08068660466887
:1002B000AE43466045688E799640B6B23543456098
:1002C000C568A543C560CC799C40C3681C43C46025
:1002D000521C102AC9D3BDE8F08141837047FEE764
:1002E000FEE7704770470000054A002903D01168F7
:1002F000014311607047116881431160704700002D
:1003000030380240704700001CB500210191009177
:100310002E4A106840F4803010604FF4A0431068FB
:1003200000F4003000900198401C0190009810B932
:1003300001989842F3D11068800302D50120009003
:1003400000E00091009801283FD12048403001682A
:1003500041F0805101601E49086840F44040086047
:100360001A48083003680360036843F400430360DD
:10037000036843F4A0530360041F164B2360136803
:1003800043F08073136013689B01FCD50A6842F444
:1003900080320A604A68D203FCD50A6842F400320F
:1003A0000A604A689203FCD50B4A40F2057111605D
:1003B000016821F003010160016841F00201016060
:1003C0000168C1F381010229FAD11CBD0038024045
:1003D00000700040195A4007003C0240704700007E
:1003E00010B51248016841F47001016010480168BD
:1003F00041F0010101600E4A0021083211600268DB
:100400000C4B1A400260031D0B4A1A60026822F46A
:100410008022026006480C300160FFF775FF034937
:100420004FF000608039086010BD000088ED00E0EA
:1004300000380240FFFFF6FE10300024FEE702E025
:1004400008C8121F08C1002AFAD17047704700205F
:1004500001E001C1121F002AFBD17047FFF7D6FE51
:1004600005496FF07F440A6882F002020A60204664
:10047000FFF7ECFEF7E70000140802408C040008C8
:0C04800000000020000400004E040008F2
:04000005080001AD41
:00000001FF
