:020000040800F2
:1000000000040020C5010008830200087F020008E8
:100010008102000869020008BD030008000000001A
:10002000000000000000000000000000870200083F
:100030006B02000800000000850200085D03000854
:10004000DF010008DF010008DF010008DF01000810
:10005000DF010008DF010008DF010008DF01000800
:10006000DF010008DF010008DF010008DF010008F0
:10007000DF010008DF010008DF010008DF010008E0
:10008000DF010008DF010008DF010008DF010008D0
:10009000DF010008DF010008DF010008DF010008C0
:1000A000DF010008DF010008DF010008DF010008B0
:1000B000DF010008DF010008DF010008DF010008A0
:1000C000DF010008DF010008DF010008DF01000890
:1000D000DF010008DF010008DF010008DF01000880
:1000E000DF010008DF010008DF010008DF01000870
:1000F000DF010008DF010008DF010008DF01000860
:10010000DF010008DF010008DF010008DF0100084F
:10011000DF010008DF010008DF010008DF0100083F
:10012000DF010008DF010008DF010008DF0100082F
:10013000DF010008DF010008DF010008DF0100081F
:10014000DF010008DF010008DF010008DF0100080F
:10015000DF010008DF010008DF010008DF010008FF
:10016000DF010008DF010008DF010008DF010008EF
:10017000DF010008DF010008DF010008DF010008DF
:10018000DF010008DF010008DF010008DF010008CF
:10019000DF010008DF010008DF010008DF010008BF
:1001A000DF010008DF010008DF010008DFF810D0E0
:1001B00000F01AF800480047DD030008AFF30080A4
:1001C000000400200648804706480047FEE7FEE797
:1001D000FEE7FEE7FEE7FEE7FEE7FEE7FEE7FEE7F7
:1001E00061030008AD010008064C074D06E0E06819
:1001F00040F0010394E8070098471034AC42F6D36E
:10020000FFF7D8FFFC0300080C040008144801683D
:1002100041F0040101601348016821F00C01016004
:10022000016841F004010160001D016821F0020134
:10023000016001680160001D016821F00C0101608E
:1002400001680160001D016821F00C010160016876
:1002500041F00401016003481A30018801807047B1
:100260003038024000080240FEE7704701B502E066
:100270000098401E009000980028F9D108BDFEE7C4
:10028000FEE77047704770471CB50021019100914F
:100290002E4A106840F4803010604FF4A04310687C
:1002A00000F4003000900198401C0190009810B9B3
:1002B00001989842F3D11068800302D50120009084
:1002C00000E00091009801283FD1204840300168AB
:1002D00041F0805101601E49086840F440400860C8
:1002E0001A48083003680360036843F4004303605E
:1002F000036843F4A0530360041F164B2360136884
:1003000043F08073136013689B01FCD50A6842F4C4
:1003100080320A604A68D203FCD50A6842F400328F
:100320000A604A689203FCD50B4A40F205711160DD
:10033000016821F003010160016841F002010160E0
:100340000168C1F381010229FAD11CBD00380240C5
:1003500000700040195A4007003C024070470000FE
:1003600010B51248016841F470010160104801683D
:1003700041F0010101600E4A00210832116002685B
:100380000C4B1A400260031D0B4A1A60026822F4EB
:100390008022026006480C300160FFF775FF0349B8
:1003A0004FF000608039086010BD000088ED00E06B
:1003B00000380240FFFFF6FE10300024FEE702E0A6
:1003C00008C8121F08C1002AFAD1704770470020E0
:1003D00001E001C1121F002AFBD17047FFF716FF91
:1003E00005496FF07F440A6882F002020A602046E5
:1003F000FFF73CFFF7E70000140802400C04000878
:0C0400000000002000040000CE030008F3
:04000005080001AD41
:00000001FF
